{
  "contractName": "PropertySale",
  "abi": [
    {
      "anonymous": false,
      "inputs": [
        {
          "indexed": true,
          "internalType": "uint256",
          "name": "id",
          "type": "uint256"
        },
        {
          "indexed": false,
          "internalType": "string",
          "name": "propertyAddress",
          "type": "string"
        },
        {
          "indexed": false,
          "internalType": "uint256",
          "name": "price",
          "type": "uint256"
        },
        {
          "indexed": false,
          "internalType": "address",
          "name": "seller",
          "type": "address"
        },
        {
          "indexed": false,
          "internalType": "string",
          "name": "title",
          "type": "string"
        }
      ],
      "name": "PropertyListed",
      "type": "event"
    },
    {
      "anonymous": false,
      "inputs": [
        {
          "indexed": true,
          "internalType": "uint256",
          "name": "id",
          "type": "uint256"
        },
        {
          "indexed": false,
          "internalType": "address",
          "name": "buyer",
          "type": "address"
        },
        {
          "indexed": false,
          "internalType": "uint256",
          "name": "price",
          "type": "uint256"
        }
      ],
      "name": "PropertySold",
      "type": "event"
    },
    {
      "inputs": [
        {
          "internalType": "uint256",
          "name": "",
          "type": "uint256"
        }
      ],
      "name": "properties",
      "outputs": [
        {
          "internalType": "string",
          "name": "propertyAddress",
          "type": "string"
        },
        {
          "internalType": "uint256",
          "name": "price",
          "type": "uint256"
        },
        {
          "internalType": "address payable",
          "name": "seller",
          "type": "address"
        },
        {
          "internalType": "address",
          "name": "buyer",
          "type": "address"
        },
        {
          "internalType": "bool",
          "name": "isSold",
          "type": "bool"
        },
        {
          "internalType": "string",
          "name": "title",
          "type": "string"
        },
        {
          "internalType": "string",
          "name": "description",
          "type": "string"
        }
      ],
      "stateMutability": "view",
      "type": "function",
      "constant": true
    },
    {
      "inputs": [],
      "name": "propertyIdCounter",
      "outputs": [
        {
          "internalType": "uint256",
          "name": "",
          "type": "uint256"
        }
      ],
      "stateMutability": "view",
      "type": "function",
      "constant": true
    },
    {
      "inputs": [
        {
          "internalType": "string",
          "name": "_propertyAddress",
          "type": "string"
        },
        {
          "internalType": "uint256",
          "name": "_price",
          "type": "uint256"
        },
        {
          "internalType": "string",
          "name": "_title",
          "type": "string"
        },
        {
          "internalType": "string",
          "name": "_description",
          "type": "string"
        }
      ],
      "name": "listProperty",
      "outputs": [],
      "stateMutability": "nonpayable",
      "type": "function"
    },
    {
      "inputs": [
        {
          "internalType": "uint256",
          "name": "_propertyId",
          "type": "uint256"
        }
      ],
      "name": "buyProperty",
      "outputs": [],
      "stateMutability": "payable",
      "type": "function",
      "payable": true
    },
    {
      "inputs": [
        {
          "internalType": "uint256",
          "name": "_propertyId",
          "type": "uint256"
        },
        {
          "internalType": "uint256",
          "name": "_newPrice",
          "type": "uint256"
        }
      ],
      "name": "updatePrice",
      "outputs": [],
      "stateMutability": "nonpayable",
      "type": "function"
    },
    {
      "inputs": [
        {
          "internalType": "uint256",
          "name": "_propertyId",
          "type": "uint256"
        }
      ],
      "name": "getProperty",
      "outputs": [
        {
          "internalType": "string",
          "name": "title",
          "type": "string"
        },
        {
          "internalType": "string",
          "name": "description",
          "type": "string"
        },
        {
          "internalType": "string",
          "name": "propertyAddress",
          "type": "string"
        },
        {
          "internalType": "uint256",
          "name": "price",
          "type": "uint256"
        },
        {
          "internalType": "address",
          "name": "seller",
          "type": "address"
        },
        {
          "internalType": "address",
          "name": "buyer",
          "type": "address"
        },
        {
          "internalType": "bool",
          "name": "isSold",
          "type": "bool"
        }
      ],
      "stateMutability": "view",
      "type": "function",
      "constant": true
    },
    {
      "inputs": [],
      "name": "getUnsoldProperties",
      "outputs": [
        {
          "components": [
            {
              "internalType": "string",
              "name": "propertyAddress",
              "type": "string"
            },
            {
              "internalType": "uint256",
              "name": "price",
              "type": "uint256"
            },
            {
              "internalType": "address payable",
              "name": "seller",
              "type": "address"
            },
            {
              "internalType": "address",
              "name": "buyer",
              "type": "address"
            },
            {
              "internalType": "bool",
              "name": "isSold",
              "type": "bool"
            },
            {
              "internalType": "string",
              "name": "title",
              "type": "string"
            },
            {
              "internalType": "string",
              "name": "description",
              "type": "string"
            }
          ],
          "internalType": "struct PropertySale.Property[]",
          "name": "",
          "type": "tuple[]"
        }
      ],
      "stateMutability": "view",
      "type": "function",
      "constant": true
    },
    {
      "inputs": [],
      "name": "getPropertiesCount",
      "outputs": [
        {
          "internalType": "uint256",
          "name": "",
          "type": "uint256"
        }
      ],
      "stateMutability": "view",
      "type": "function",
      "constant": true
    }
  ],
  "bytecode": "0x608060405234801561001057600080fd5b50611ede806100206000396000f3fe60806040526004361061007a5760003560e01c80636fa830a61161004e5780636fa830a61461014157806382367b2d1461015d578063e1af372314610186578063f7b10808146101b15761007a565b8062d890331461007f578063174000bc146100aa57806332665ffb146100d557806343cf8f4014610118575b600080fd5b34801561008b57600080fd5b506100946101f4565b6040516100a19190611bfa565b60405180910390f35b3480156100b657600080fd5b506100bf6101fa565b6040516100cc9190611bfa565b60405180910390f35b3480156100e157600080fd5b506100fc60048036038101906100f7919061150c565b610204565b60405161010f97969594939291906119bf565b60405180910390f35b34801561012457600080fd5b5061013f600480360381019061013a9190611461565b610547565b005b61015b6004803603810190610156919061150c565b610771565b005b34801561016957600080fd5b50610184600480360381019061017f9190611535565b610a25565b005b34801561019257600080fd5b5061019b610c88565b6040516101a8919061199d565b60405180910390f35b3480156101bd57600080fd5b506101d860048036038101906101d3919061150c565b6110af565b6040516101eb9796959493929190611a43565b60405180910390f35b60015481565b6000600154905090565b60608060606000806000808760008111801561022257506001548111155b610261576040517f08c379a000000000000000000000000000000000000000000000000000000000815260040161025890611b1a565b60405180910390fd5b60008060008b81526020019081526020016000206040518060e001604052908160008201805461029090611d78565b80601f01602080910402602001604051908101604052809291908181526020018280546102bc90611d78565b80156103095780601f106102de57610100808354040283529160200191610309565b820191906000526020600020905b8154815290600101906020018083116102ec57829003601f168201915b50505050508152602001600182015481526020016002820160009054906101000a900473ffffffffffffffffffffffffffffffffffffffff1673ffffffffffffffffffffffffffffffffffffffff1673ffffffffffffffffffffffffffffffffffffffff1681526020016003820160009054906101000a900473ffffffffffffffffffffffffffffffffffffffff1673ffffffffffffffffffffffffffffffffffffffff1673ffffffffffffffffffffffffffffffffffffffff1681526020016003820160149054906101000a900460ff161515151581526020016004820180546103f390611d78565b80601f016020809104026020016040519081016040528092919081815260200182805461041f90611d78565b801561046c5780601f106104415761010080835404028352916020019161046c565b820191906000526020600020905b81548152906001019060200180831161044f57829003601f168201915b5050505050815260200160058201805461048590611d78565b80601f01602080910402602001604051908101604052809291908181526020018280546104b190611d78565b80156104fe5780601f106104d3576101008083540402835291602001916104fe565b820191906000526020600020905b8154815290600101906020018083116104e157829003601f168201915b50505050508152505090508060a001518160c001518260000151836020015184604001518560600151866080015198509850985098509850985098505050919395979092949650565b6000831161058a576040517f08c379a000000000000000000000000000000000000000000000000000000000815260040161058190611b7a565b60405180910390fd5b6001600081548092919061059d90611daa565b91905055506040518060e001604052808581526020018481526020013373ffffffffffffffffffffffffffffffffffffffff168152602001600073ffffffffffffffffffffffffffffffffffffffff16815260200160001515815260200183815260200182815250600080600154815260200190815260200160002060008201518160000190805190602001906106359291906112d6565b506020820151816001015560408201518160020160006101000a81548173ffffffffffffffffffffffffffffffffffffffff021916908373ffffffffffffffffffffffffffffffffffffffff16021790555060608201518160030160006101000a81548173ffffffffffffffffffffffffffffffffffffffff021916908373ffffffffffffffffffffffffffffffffffffffff16021790555060808201518160030160146101000a81548160ff02191690831515021790555060a082015181600401908051906020019061070a9291906112d6565b5060c08201518160050190805190602001906107279291906112d6565b509050506001547f46a49d03fc7182f022c92144c0c760d65d0d03c6af5f779a7600f02596bca605858533866040516107639493929190611ac7565b60405180910390a250505050565b8060008111801561078457506001548111155b6107c3576040517f08c379a00000000000000000000000000000000000000000000000000000000081526004016107ba90611b1a565b60405180910390fd5b8160008082815260200190815260200160002060030160149054906101000a900460ff1615610827576040517f08c379a000000000000000000000000000000000000000000000000000000000815260040161081e90611bda565b60405180910390fd5b600080600085815260200190815260200160002090508060020160009054906101000a900473ffffffffffffffffffffffffffffffffffffffff1673ffffffffffffffffffffffffffffffffffffffff163373ffffffffffffffffffffffffffffffffffffffff1614156108d0576040517f08c379a00000000000000000000000000000000000000000000000000000000081526004016108c790611bba565b60405180910390fd5b80600101543414610916576040517f08c379a000000000000000000000000000000000000000000000000000000000815260040161090d90611b3a565b60405180910390fd5b8060020160009054906101000a900473ffffffffffffffffffffffffffffffffffffffff1673ffffffffffffffffffffffffffffffffffffffff166108fc349081150290604051600060405180830381858888f19350505050158015610980573d6000803e3d6000fd5b50338160030160006101000a81548173ffffffffffffffffffffffffffffffffffffffff021916908373ffffffffffffffffffffffffffffffffffffffff16021790555060018160030160146101000a81548160ff021916908315150217905550837ff17a6666765db393a6218bb324c4de5cc60c9ee3b981bd102ba416effc13b895338360010154604051610a17929190611974565b60405180910390a250505050565b81600081118015610a3857506001548111155b610a77576040517f08c379a0000000000000000000000000000000000000000000000000000000008152600401610a6e90611b1a565b60405180910390fd5b82600073ffffffffffffffffffffffffffffffffffffffff1660008083815260200190815260200160002060020160009054906101000a900473ffffffffffffffffffffffffffffffffffffffff1673ffffffffffffffffffffffffffffffffffffffff161415610b1d576040517f08c379a0000000000000000000000000000000000000000000000000000000008152600401610b1490611b9a565b60405180910390fd5b60008082815260200190815260200160002060020160009054906101000a900473ffffffffffffffffffffffffffffffffffffffff1673ffffffffffffffffffffffffffffffffffffffff163373ffffffffffffffffffffffffffffffffffffffff1614610bc0576040517f08c379a0000000000000000000000000000000000000000000000000000000008152600401610bb790611b5a565b60405180910390fd5b8360008082815260200190815260200160002060030160149054906101000a900460ff1615610c24576040517f08c379a0000000000000000000000000000000000000000000000000000000008152600401610c1b90611bda565b60405180910390fd5b60008411610c67576040517f08c379a0000000000000000000000000000000000000000000000000000000008152600401610c5e90611b7a565b60405180910390fd5b83600080878152602001908152602001600020600101819055505050505050565b6060600080600190505b6001548111610ce45760008082815260200190815260200160002060030160149054906101000a900460ff16610cd1578180610ccd90611daa565b9250505b8080610cdc90611daa565b915050610c92565b5060008167ffffffffffffffff811115610d27577f4e487b7100000000000000000000000000000000000000000000000000000000600052604160045260246000fd5b604051908082528060200260200182016040528015610d6057816020015b610d4d61135c565b815260200190600190039081610d455790505b509050600080600190505b60015481116110a55760008082815260200190815260200160002060030160149054906101000a900460ff16611092576000808281526020019081526020016000206040518060e0016040529081600082018054610dc890611d78565b80601f0160208091040260200160405190810160405280929190818152602001828054610df490611d78565b8015610e415780601f10610e1657610100808354040283529160200191610e41565b820191906000526020600020905b815481529060010190602001808311610e2457829003601f168201915b50505050508152602001600182015481526020016002820160009054906101000a900473ffffffffffffffffffffffffffffffffffffffff1673ffffffffffffffffffffffffffffffffffffffff1673ffffffffffffffffffffffffffffffffffffffff1681526020016003820160009054906101000a900473ffffffffffffffffffffffffffffffffffffffff1673ffffffffffffffffffffffffffffffffffffffff1673ffffffffffffffffffffffffffffffffffffffff1681526020016003820160149054906101000a900460ff16151515158152602001600482018054610f2b90611d78565b80601f0160208091040260200160405190810160405280929190818152602001828054610f5790611d78565b8015610fa45780601f10610f7957610100808354040283529160200191610fa4565b820191906000526020600020905b815481529060010190602001808311610f8757829003601f168201915b50505050508152602001600582018054610fbd90611d78565b80601f0160208091040260200160405190810160405280929190818152602001828054610fe990611d78565b80156110365780601f1061100b57610100808354040283529160200191611036565b820191906000526020600020905b81548152906001019060200180831161101957829003601f168201915b505050505081525050838381518110611078577f4e487b7100000000000000000000000000000000000000000000000000000000600052603260045260246000fd5b6020026020010181905250818061108e90611daa565b9250505b808061109d90611daa565b915050610d6b565b5081935050505090565b60006020528060005260406000206000915090508060000180546110d290611d78565b80601f01602080910402602001604051908101604052809291908181526020018280546110fe90611d78565b801561114b5780601f106111205761010080835404028352916020019161114b565b820191906000526020600020905b81548152906001019060200180831161112e57829003601f168201915b5050505050908060010154908060020160009054906101000a900473ffffffffffffffffffffffffffffffffffffffff16908060030160009054906101000a900473ffffffffffffffffffffffffffffffffffffffff16908060030160149054906101000a900460ff16908060040180546111c590611d78565b80601f01602080910402602001604051908101604052809291908181526020018280546111f190611d78565b801561123e5780601f106112135761010080835404028352916020019161123e565b820191906000526020600020905b81548152906001019060200180831161122157829003601f168201915b50505050509080600501805461125390611d78565b80601f016020809104026020016040519081016040528092919081815260200182805461127f90611d78565b80156112cc5780601f106112a1576101008083540402835291602001916112cc565b820191906000526020600020905b8154815290600101906020018083116112af57829003601f168201915b5050505050905087565b8280546112e290611d78565b90600052602060002090601f016020900481019282611304576000855561134b565b82601f1061131d57805160ff191683800117855561134b565b8280016001018555821561134b579182015b8281111561134a57825182559160200191906001019061132f565b5b50905061135891906113c7565b5090565b6040518060e001604052806060815260200160008152602001600073ffffffffffffffffffffffffffffffffffffffff168152602001600073ffffffffffffffffffffffffffffffffffffffff16815260200160001515815260200160608152602001606081525090565b5b808211156113e05760008160009055506001016113c8565b5090565b60006113f76113f284611c46565b611c15565b90508281526020810184848401111561140f57600080fd5b61141a848285611d36565b509392505050565b600082601f83011261143357600080fd5b81356114438482602086016113e4565b91505092915050565b60008135905061145b81611e91565b92915050565b6000806000806080858703121561147757600080fd5b600085013567ffffffffffffffff81111561149157600080fd5b61149d87828801611422565b94505060206114ae8782880161144c565b935050604085013567ffffffffffffffff8111156114cb57600080fd5b6114d787828801611422565b925050606085013567ffffffffffffffff8111156114f457600080fd5b61150087828801611422565b91505092959194509250565b60006020828403121561151e57600080fd5b600061152c8482850161144c565b91505092915050565b6000806040838503121561154857600080fd5b60006115568582860161144c565b92505060206115678582860161144c565b9150509250929050565b600061157d83836118ac565b905092915050565b61158e81611cee565b82525050565b61159d81611cee565b82525050565b6115ac81611cdc565b82525050565b6115bb81611cdc565b82525050565b60006115cc82611c86565b6115d68185611ca9565b9350836020820285016115e885611c76565b8060005b8581101561162457848403895281516116058582611571565b945061161083611c9c565b925060208a019950506001810190506115ec565b50829750879550505050505092915050565b61163f81611d00565b82525050565b61164e81611d00565b82525050565b600061165f82611c91565b6116698185611cba565b9350611679818560208601611d45565b61168281611e80565b840191505092915050565b600061169882611c91565b6116a28185611ccb565b93506116b2818560208601611d45565b6116bb81611e80565b840191505092915050565b60006116d3601283611ccb565b91507f50726f706572746920746964616b2061646100000000000000000000000000006000830152602082019050919050565b6000611713601783611ccb565b91507f4a756d6c61682045544820746964616b207365737561690000000000000000006000830152602082019050919050565b6000611753600d83611ccb565b91507f48616e79612070656e6a75616c000000000000000000000000000000000000006000830152602082019050919050565b6000611793600f83611ccb565b91507f4861726761206861727573203e203000000000000000000000000000000000006000830152602082019050919050565b60006117d3601883611ccb565b91507f50726f706572746920746964616b20646974656d756b616e00000000000000006000830152602082019050919050565b6000611813602283611ccb565b91507f50656e6a75616c20746964616b2062697361206d656d62656c692073656e646960008301527f72690000000000000000000000000000000000000000000000000000000000006020830152604082019050919050565b6000611879600d83611ccb565b91507f5375646168207465726a75616c000000000000000000000000000000000000006000830152602082019050919050565b600060e08301600083015184820360008601526118c98282611654565b91505060208301516118de6020860182611956565b5060408301516118f16040860182611585565b50606083015161190460608601826115a3565b5060808301516119176080860182611636565b5060a083015184820360a086015261192f8282611654565b91505060c083015184820360c08601526119498282611654565b9150508091505092915050565b61195f81611d2c565b82525050565b61196e81611d2c565b82525050565b600060408201905061198960008301856115b2565b6119966020830184611965565b9392505050565b600060208201905081810360008301526119b781846115c1565b905092915050565b600060e08201905081810360008301526119d9818a61168d565b905081810360208301526119ed818961168d565b90508181036040830152611a01818861168d565b9050611a106060830187611965565b611a1d60808301866115b2565b611a2a60a08301856115b2565b611a3760c0830184611645565b98975050505050505050565b600060e0820190508181036000830152611a5d818a61168d565b9050611a6c6020830189611965565b611a796040830188611594565b611a8660608301876115b2565b611a936080830186611645565b81810360a0830152611aa5818561168d565b905081810360c0830152611ab9818461168d565b905098975050505050505050565b60006080820190508181036000830152611ae1818761168d565b9050611af06020830186611965565b611afd60408301856115b2565b8181036060830152611b0f818461168d565b905095945050505050565b60006020820190508181036000830152611b33816116c6565b9050919050565b60006020820190508181036000830152611b5381611706565b9050919050565b60006020820190508181036000830152611b7381611746565b9050919050565b60006020820190508181036000830152611b9381611786565b9050919050565b60006020820190508181036000830152611bb3816117c6565b9050919050565b60006020820190508181036000830152611bd381611806565b9050919050565b60006020820190508181036000830152611bf38161186c565b9050919050565b6000602082019050611c0f6000830184611965565b92915050565b6000604051905081810181811067ffffffffffffffff82111715611c3c57611c3b611e51565b5b8060405250919050565b600067ffffffffffffffff821115611c6157611c60611e51565b5b601f19601f8301169050602081019050919050565b6000819050602082019050919050565b600081519050919050565b600081519050919050565b6000602082019050919050565b600082825260208201905092915050565b600082825260208201905092915050565b600082825260208201905092915050565b6000611ce782611d0c565b9050919050565b6000611cf982611d0c565b9050919050565b60008115159050919050565b600073ffffffffffffffffffffffffffffffffffffffff82169050919050565b6000819050919050565b82818337600083830152505050565b60005b83811015611d63578082015181840152602081019050611d48565b83811115611d72576000848401525b50505050565b60006002820490506001821680611d9057607f821691505b60208210811415611da457611da3611e22565b5b50919050565b6000611db582611d2c565b91507fffffffffffffffffffffffffffffffffffffffffffffffffffffffffffffffff821415611de857611de7611df3565b5b600182019050919050565b7f4e487b7100000000000000000000000000000000000000000000000000000000600052601160045260246000fd5b7f4e487b7100000000000000000000000000000000000000000000000000000000600052602260045260246000fd5b7f4e487b7100000000000000000000000000000000000000000000000000000000600052604160045260246000fd5b6000601f19601f8301169050919050565b611e9a81611d2c565b8114611ea557600080fd5b5056fea2646970667358221220885997801ccebdb3e8c2a572c311b09f40c408cc3a5297d7f43fc00981284ac764736f6c63430008000033",
  "immutableReferences": {},
  "source": "// SPDX-License-Identifier: MIT\npragma solidity ^0.8.0;\n\ncontract SimpleStorage {\n    uint256 public storedData;\n\n    function write(uint256 x) public {\n        storedData = x;\n    }\n\n    function read() public view returns (uint256) {\n        return storedData;\n    }\n}\ncontract PropertySale {\n    struct Property {\n        string propertyAddress;\n        uint256 price;\n        address payable seller;\n        address buyer;\n        bool isSold;\n        string title;\n        string description;\n    }\n\n    mapping(uint256 => Property) public properties;\n    uint256 public propertyIdCounter;\n\n    event PropertyListed(\n        uint256 indexed id,\n        string propertyAddress,\n        uint256 price,\n        address seller,\n        string title\n    );\n\n    event PropertySold(\n        uint256 indexed id,\n        address buyer,\n        uint256 price\n    );\n\n    modifier onlySeller(uint256 _propertyId) {\n        require(properties[_propertyId].seller != address(0), \"Properti tidak ditemukan\");\n        require(msg.sender == properties[_propertyId].seller, \"Hanya penjual\");\n        _;\n    }\n\n    modifier notSold(uint256 _propertyId) {\n        require(!properties[_propertyId].isSold, \"Sudah terjual\");\n        _;\n    }\n\n    modifier propertyExists(uint256 _propertyId) {\n        require(_propertyId > 0 && _propertyId <= propertyIdCounter, \"Properti tidak ada\");\n        _;\n    }\n\n    /// @notice List property for sale\n    function listProperty(\n        string memory _propertyAddress,\n        uint256 _price,\n        string memory _title,\n        string memory _description\n    ) external {\n        require(_price > 0, \"Harga harus > 0\");\n\n        propertyIdCounter++;\n        properties[propertyIdCounter] = Property({\n            propertyAddress: _propertyAddress,\n            price: _price,\n            seller: payable(msg.sender),\n            buyer: address(0),\n            isSold: false,\n            title: _title,\n            description: _description\n        });\n\n        emit PropertyListed(propertyIdCounter, _propertyAddress, _price, msg.sender, _title);\n    }\n\n    /// @notice Buy property by ID\n    function buyProperty(uint256 _propertyId)\n        external\n        payable\n        propertyExists(_propertyId)\n        notSold(_propertyId)\n    {\n        Property storage property = properties[_propertyId];\n        require(msg.sender != property.seller, \"Penjual tidak bisa membeli sendiri\");\n        require(msg.value == property.price, \"Jumlah ETH tidak sesuai\");\n\n        property.seller.transfer(msg.value);\n        property.buyer = msg.sender;\n        property.isSold = true;\n\n        emit PropertySold(_propertyId, msg.sender, property.price);\n    }\n\n    /// @notice Update property price\n    function updatePrice(uint256 _propertyId, uint256 _newPrice)\n        external\n        propertyExists(_propertyId)\n        onlySeller(_propertyId)\n        notSold(_propertyId)\n    {\n        require(_newPrice > 0, \"Harga harus > 0\");\n        properties[_propertyId].price = _newPrice;\n    }\n\n    /// @notice Get details of one property (frontend use)\n    function getProperty(uint256 _propertyId)\n        external\n        view\n        propertyExists(_propertyId)\n        returns (\n            string memory title,\n            string memory description,\n            string memory propertyAddress,\n            uint256 price,\n            address seller,\n            address buyer,\n            bool isSold\n        )\n    {\n        Property memory property = properties[_propertyId];\n        return (\n            property.title,\n            property.description,\n            property.propertyAddress,\n            property.price,\n            property.seller,\n            property.buyer,\n            property.isSold\n        );\n    }\n\n    /// @notice Get all unsold properties\n    function getUnsoldProperties() external view returns (Property[] memory) {\n        uint count = 0;\n        for (uint i = 1; i <= propertyIdCounter; i++) {\n            if (!properties[i].isSold) count++;\n        }\n\n        Property[] memory unsold = new Property[](count);\n        uint index = 0;\n        for (uint i = 1; i <= propertyIdCounter; i++) {\n            if (!properties[i].isSold) {\n                unsold[index] = properties[i];\n                index++;\n            }\n        }\n\n        return unsold;\n    }\n\n    /// @notice Get total number of listed properties\n    function getPropertiesCount() external view returns (uint256) {\n        return propertyIdCounter;\n    }\n}\n",
  "sourcePath": "C:\\Users\\asus\\OneDrive\\Desktop\\propety\\truffle\\contracts\\SimpleStorage.sol",
  "compiler": {
    "name": "solc",
    "version": "0.8.0+commit.c7dfd78e.Emscripten.clang"
  },
  "schemaVersion": "3.4.16",
  "updatedAt": "2025-06-09T10:58:17.340Z",
  "networkType": "ethereum",
  "devdoc": {
    "kind": "dev",
    "methods": {},
    "version": 1
  },
  "userdoc": {
    "kind": "user",
    "methods": {
      "buyProperty(uint256)": {
        "notice": "Buy property by ID"
      },
      "getPropertiesCount()": {
        "notice": "Get total number of listed properties"
      },
      "getProperty(uint256)": {
        "notice": "Get details of one property (frontend use)"
      },
      "getUnsoldProperties()": {
        "notice": "Get all unsold properties"
      },
      "listProperty(string,uint256,string,string)": {
        "notice": "List property for sale"
      },
      "updatePrice(uint256,uint256)": {
        "notice": "Update property price"
      }
    },
    "version": 1
  }
}